{
  "_format": "hh-sol-artifact-1",
  "contractName": "UserProfile",
  "sourceName": "contracts/UserProfile.sol",
  "abi": [
    {
      "anonymous": false,
      "inputs": [
        {
          "indexed": true,
          "internalType": "address",
          "name": "user",
          "type": "address"
        },
        {
          "indexed": false,
          "internalType": "string",
          "name": "name",
          "type": "string"
        }
      ],
      "name": "ProfileCreated",
      "type": "event"
    },
    {
      "anonymous": false,
      "inputs": [
        {
          "indexed": true,
          "internalType": "address",
          "name": "user",
          "type": "address"
        },
        {
          "indexed": true,
          "internalType": "address",
          "name": "reviewer",
          "type": "address"
        },
        {
          "indexed": false,
          "internalType": "uint256",
          "name": "rating",
          "type": "uint256"
        }
      ],
      "name": "ReviewAdded",
      "type": "event"
    },
    {
      "inputs": [
        {
          "internalType": "address",
          "name": "_user",
          "type": "address"
        },
        {
          "internalType": "uint256",
          "name": "_rating",
          "type": "uint256"
        },
        {
          "internalType": "string",
          "name": "_comment",
          "type": "string"
        }
      ],
      "name": "addReview",
      "outputs": [],
      "stateMutability": "nonpayable",
      "type": "function"
    },
    {
      "inputs": [
        {
          "internalType": "string",
          "name": "_name",
          "type": "string"
        },
        {
          "internalType": "string",
          "name": "_bio",
          "type": "string"
        },
        {
          "internalType": "string",
          "name": "_skills",
          "type": "string"
        }
      ],
      "name": "createProfile",
      "outputs": [],
      "stateMutability": "nonpayable",
      "type": "function"
    },
    {
      "inputs": [
        {
          "internalType": "address",
          "name": "_user",
          "type": "address"
        }
      ],
      "name": "getProfile",
      "outputs": [
        {
          "components": [
            {
              "internalType": "string",
              "name": "name",
              "type": "string"
            },
            {
              "internalType": "string",
              "name": "bio",
              "type": "string"
            },
            {
              "internalType": "string",
              "name": "skills",
              "type": "string"
            },
            {
              "internalType": "uint256",
              "name": "reviewCount",
              "type": "uint256"
            },
            {
              "internalType": "uint256",
              "name": "averageRating",
              "type": "uint256"
            }
          ],
          "internalType": "struct UserProfile.Profile",
          "name": "",
          "type": "tuple"
        }
      ],
      "stateMutability": "view",
      "type": "function"
    },
    {
      "inputs": [
        {
          "internalType": "address",
          "name": "_user",
          "type": "address"
        }
      ],
      "name": "getReviews",
      "outputs": [
        {
          "components": [
            {
              "internalType": "address",
              "name": "reviewer",
              "type": "address"
            },
            {
              "internalType": "uint256",
              "name": "rating",
              "type": "uint256"
            },
            {
              "internalType": "string",
              "name": "comment",
              "type": "string"
            },
            {
              "internalType": "uint256",
              "name": "timestamp",
              "type": "uint256"
            }
          ],
          "internalType": "struct UserProfile.Review[]",
          "name": "",
          "type": "tuple[]"
        }
      ],
      "stateMutability": "view",
      "type": "function"
    },
    {
      "inputs": [
        {
          "internalType": "address",
          "name": "",
          "type": "address"
        }
      ],
      "name": "profiles",
      "outputs": [
        {
          "internalType": "string",
          "name": "name",
          "type": "string"
        },
        {
          "internalType": "string",
          "name": "bio",
          "type": "string"
        },
        {
          "internalType": "string",
          "name": "skills",
          "type": "string"
        },
        {
          "internalType": "uint256",
          "name": "reviewCount",
          "type": "uint256"
        },
        {
          "internalType": "uint256",
          "name": "averageRating",
          "type": "uint256"
        }
      ],
      "stateMutability": "view",
      "type": "function"
    },
    {
      "inputs": [
        {
          "internalType": "address",
          "name": "",
          "type": "address"
        },
        {
          "internalType": "uint256",
          "name": "",
          "type": "uint256"
        }
      ],
      "name": "reviews",
      "outputs": [
        {
          "internalType": "address",
          "name": "reviewer",
          "type": "address"
        },
        {
          "internalType": "uint256",
          "name": "rating",
          "type": "uint256"
        },
        {
          "internalType": "string",
          "name": "comment",
          "type": "string"
        },
        {
          "internalType": "uint256",
          "name": "timestamp",
          "type": "uint256"
        }
      ],
      "stateMutability": "view",
      "type": "function"
    }
  ],
  "bytecode": "0x608060405234801561001057600080fd5b50611ed5806100206000396000f3fe608060405234801561001057600080fd5b50600436106100625760003560e01c80630f53a470146100675780634ef5a017146100975780636db3328f146100c75780639841c82c146100fa578063aed6138214610116578063bbe1562714610132575b600080fd5b610081600480360381019061007c9190610f92565b610166565b60405161008e91906110ec565b60405180910390f35b6100b160048036038101906100ac9190610f92565b61040c565b6040516100be9190611242565b60405180910390f35b6100e160048036038101906100dc9190611290565b61062a565b6040516100f19493929190611338565b60405180910390f35b610114600480360381019061010f91906114b9565b61071f565b005b610130600480360381019061012b9190611560565b610982565b005b61014c60048036038101906101479190610f92565b610d23565b60405161015d9594939291906115cf565b60405180910390f35b61016e610ef1565b60008060008473ffffffffffffffffffffffffffffffffffffffff1673ffffffffffffffffffffffffffffffffffffffff16815260200190815260200160002060030154116101f2576040517f08c379a00000000000000000000000000000000000000000000000000000000081526004016101e990611683565b60405180910390fd5b6000808373ffffffffffffffffffffffffffffffffffffffff1673ffffffffffffffffffffffffffffffffffffffff1681526020019081526020016000206040518060a001604052908160008201805461024b906116d2565b80601f0160208091040260200160405190810160405280929190818152602001828054610277906116d2565b80156102c45780601f10610299576101008083540402835291602001916102c4565b820191906000526020600020905b8154815290600101906020018083116102a757829003601f168201915b505050505081526020016001820180546102dd906116d2565b80601f0160208091040260200160405190810160405280929190818152602001828054610309906116d2565b80156103565780601f1061032b57610100808354040283529160200191610356565b820191906000526020600020905b81548152906001019060200180831161033957829003601f168201915b5050505050815260200160028201805461036f906116d2565b80601f016020809104026020016040519081016040528092919081815260200182805461039b906116d2565b80156103e85780601f106103bd576101008083540402835291602001916103e8565b820191906000526020600020905b8154815290600101906020018083116103cb57829003601f168201915b50505050508152602001600382015481526020016004820154815250509050919050565b606060008060008473ffffffffffffffffffffffffffffffffffffffff1673ffffffffffffffffffffffffffffffffffffffff1681526020019081526020016000206003015411610492576040517f08c379a000000000000000000000000000000000000000000000000000000000815260040161048990611683565b60405180910390fd5b600160008373ffffffffffffffffffffffffffffffffffffffff1673ffffffffffffffffffffffffffffffffffffffff168152602001908152602001600020805480602002602001604051908101604052809291908181526020016000905b8282101561061f57838290600052602060002090600402016040518060800160405290816000820160009054906101000a900473ffffffffffffffffffffffffffffffffffffffff1673ffffffffffffffffffffffffffffffffffffffff1673ffffffffffffffffffffffffffffffffffffffff16815260200160018201548152602001600282018054610584906116d2565b80601f01602080910402602001604051908101604052809291908181526020018280546105b0906116d2565b80156105fd5780601f106105d2576101008083540402835291602001916105fd565b820191906000526020600020905b8154815290600101906020018083116105e057829003601f168201915b50505050508152602001600382015481525050815260200190600101906104f1565b505050509050919050565b6001602052816000526040600020818154811061064657600080fd5b9060005260206000209060040201600091509150508060000160009054906101000a900473ffffffffffffffffffffffffffffffffffffffff1690806001015490806002018054610696906116d2565b80601f01602080910402602001604051908101604052809291908181526020018280546106c2906116d2565b801561070f5780601f106106e45761010080835404028352916020019161070f565b820191906000526020600020905b8154815290600101906020018083116106f257829003601f168201915b5050505050908060030154905084565b6000835111610763576040517f08c379a000000000000000000000000000000000000000000000000000000000815260040161075a9061174f565b60405180910390fd5b60008251116107a7576040517f08c379a000000000000000000000000000000000000000000000000000000000815260040161079e906117bb565b60405180910390fd5b60008151116107eb576040517f08c379a00000000000000000000000000000000000000000000000000000000081526004016107e290611827565b60405180910390fd5b60008060003373ffffffffffffffffffffffffffffffffffffffff1673ffffffffffffffffffffffffffffffffffffffff168152602001908152602001600020600301541461086f576040517f08c379a000000000000000000000000000000000000000000000000000000000815260040161086690611893565b60405180910390fd5b6040518060a001604052808481526020018381526020018281526020016000815260200160008152506000803373ffffffffffffffffffffffffffffffffffffffff1673ffffffffffffffffffffffffffffffffffffffff16815260200190815260200160002060008201518160000190816108eb9190611a5f565b5060208201518160010190816109019190611a5f565b5060408201518160020190816109179190611a5f565b5060608201518160030155608082015181600401559050503373ffffffffffffffffffffffffffffffffffffffff167fbafddecbd1dec1c1afb76d693f1de16901f521bdf29a02438e3e6806c0b8d948846040516109759190611b31565b60405180910390a2505050565b3373ffffffffffffffffffffffffffffffffffffffff168373ffffffffffffffffffffffffffffffffffffffff16036109f0576040517f08c379a00000000000000000000000000000000000000000000000000000000081526004016109e790611b9f565b60405180910390fd5b600082118015610a01575060058211155b610a40576040517f08c379a0000000000000000000000000000000000000000000000000000000008152600401610a3790611c0b565b60405180910390fd5b6000815111610a84576040517f08c379a0000000000000000000000000000000000000000000000000000000008152600401610a7b90611c77565b60405180910390fd5b60008060008573ffffffffffffffffffffffffffffffffffffffff1673ffffffffffffffffffffffffffffffffffffffff1681526020019081526020016000206003015411610b08576040517f08c379a0000000000000000000000000000000000000000000000000000000008152600401610aff90611ce3565b60405180910390fd5b60008060008573ffffffffffffffffffffffffffffffffffffffff1673ffffffffffffffffffffffffffffffffffffffff1681526020019081526020016000209050600160008573ffffffffffffffffffffffffffffffffffffffff1673ffffffffffffffffffffffffffffffffffffffff16815260200190815260200160002060405180608001604052803373ffffffffffffffffffffffffffffffffffffffff16815260200185815260200184815260200142815250908060018154018082558091505060019003906000526020600020906004020160009091909190915060008201518160000160006101000a81548173ffffffffffffffffffffffffffffffffffffffff021916908373ffffffffffffffffffffffffffffffffffffffff160217905550602082015181600101556040820151816002019081610c4f9190611a5f565b50606082015181600301555050806003016000815480929190610c7190611d32565b919050555080600301548360018360030154610c8d9190611d7a565b8360040154610c9c9190611dae565b610ca69190611df0565b610cb09190611e53565b81600401819055503373ffffffffffffffffffffffffffffffffffffffff168473ffffffffffffffffffffffffffffffffffffffff167fa4d3fa20e3766f0da095473fcbd09a36312b9241aaca0b5a6924290a9c9add9585604051610d159190611e84565b60405180910390a350505050565b6000602052806000526040600020600091509050806000018054610d46906116d2565b80601f0160208091040260200160405190810160405280929190818152602001828054610d72906116d2565b8015610dbf5780601f10610d9457610100808354040283529160200191610dbf565b820191906000526020600020905b815481529060010190602001808311610da257829003601f168201915b505050505090806001018054610dd4906116d2565b80601f0160208091040260200160405190810160405280929190818152602001828054610e00906116d2565b8015610e4d5780601f10610e2257610100808354040283529160200191610e4d565b820191906000526020600020905b815481529060010190602001808311610e3057829003601f168201915b505050505090806002018054610e62906116d2565b80601f0160208091040260200160405190810160405280929190818152602001828054610e8e906116d2565b8015610edb5780601f10610eb057610100808354040283529160200191610edb565b820191906000526020600020905b815481529060010190602001808311610ebe57829003601f168201915b5050505050908060030154908060040154905085565b6040518060a0016040528060608152602001606081526020016060815260200160008152602001600081525090565b6000604051905090565b600080fd5b600080fd5b600073ffffffffffffffffffffffffffffffffffffffff82169050919050565b6000610f5f82610f34565b9050919050565b610f6f81610f54565b8114610f7a57600080fd5b50565b600081359050610f8c81610f66565b92915050565b600060208284031215610fa857610fa7610f2a565b5b6000610fb684828501610f7d565b91505092915050565b600081519050919050565b600082825260208201905092915050565b60005b83811015610ff9578082015181840152602081019050610fde565b60008484015250505050565b6000601f19601f8301169050919050565b600061102182610fbf565b61102b8185610fca565b935061103b818560208601610fdb565b61104481611005565b840191505092915050565b6000819050919050565b6110628161104f565b82525050565b600060a08301600083015184820360008601526110858282611016565b9150506020830151848203602086015261109f8282611016565b915050604083015184820360408601526110b98282611016565b91505060608301516110ce6060860182611059565b5060808301516110e16080860182611059565b508091505092915050565b600060208201905081810360008301526111068184611068565b905092915050565b600081519050919050565b600082825260208201905092915050565b6000819050602082019050919050565b61114381610f54565b82525050565b6000608083016000830151611161600086018261113a565b5060208301516111746020860182611059565b506040830151848203604086015261118c8282611016565b91505060608301516111a16060860182611059565b508091505092915050565b60006111b88383611149565b905092915050565b6000602082019050919050565b60006111d88261110e565b6111e28185611119565b9350836020820285016111f48561112a565b8060005b85811015611230578484038952815161121185826111ac565b945061121c836111c0565b925060208a019950506001810190506111f8565b50829750879550505050505092915050565b6000602082019050818103600083015261125c81846111cd565b905092915050565b61126d8161104f565b811461127857600080fd5b50565b60008135905061128a81611264565b92915050565b600080604083850312156112a7576112a6610f2a565b5b60006112b585828601610f7d565b92505060206112c68582860161127b565b9150509250929050565b6112d981610f54565b82525050565b6112e88161104f565b82525050565b600082825260208201905092915050565b600061130a82610fbf565b61131481856112ee565b9350611324818560208601610fdb565b61132d81611005565b840191505092915050565b600060808201905061134d60008301876112d0565b61135a60208301866112df565b818103604083015261136c81856112ff565b905061137b60608301846112df565b95945050505050565b600080fd5b600080fd5b7f4e487b7100000000000000000000000000000000000000000000000000000000600052604160045260246000fd5b6113c682611005565b810181811067ffffffffffffffff821117156113e5576113e461138e565b5b80604052505050565b60006113f8610f20565b905061140482826113bd565b919050565b600067ffffffffffffffff8211156114245761142361138e565b5b61142d82611005565b9050602081019050919050565b82818337600083830152505050565b600061145c61145784611409565b6113ee565b90508281526020810184848401111561147857611477611389565b5b61148384828561143a565b509392505050565b600082601f8301126114a05761149f611384565b5b81356114b0848260208601611449565b91505092915050565b6000806000606084860312156114d2576114d1610f2a565b5b600084013567ffffffffffffffff8111156114f0576114ef610f2f565b5b6114fc8682870161148b565b935050602084013567ffffffffffffffff81111561151d5761151c610f2f565b5b6115298682870161148b565b925050604084013567ffffffffffffffff81111561154a57611549610f2f565b5b6115568682870161148b565b9150509250925092565b60008060006060848603121561157957611578610f2a565b5b600061158786828701610f7d565b93505060206115988682870161127b565b925050604084013567ffffffffffffffff8111156115b9576115b8610f2f565b5b6115c58682870161148b565b9150509250925092565b600060a08201905081810360008301526115e981886112ff565b905081810360208301526115fd81876112ff565b9050818103604083015261161181866112ff565b905061162060608301856112df565b61162d60808301846112df565b9695505050505050565b7f50726f66696c6520646f6573206e6f7420657869737400000000000000000000600082015250565b600061166d6016836112ee565b915061167882611637565b602082019050919050565b6000602082019050818103600083015261169c81611660565b9050919050565b7f4e487b7100000000000000000000000000000000000000000000000000000000600052602260045260246000fd5b600060028204905060018216806116ea57607f821691505b6020821081036116fd576116fc6116a3565b5b50919050565b7f4e616d652063616e6e6f7420626520656d707479000000000000000000000000600082015250565b60006117396014836112ee565b915061174482611703565b602082019050919050565b600060208201905081810360008301526117688161172c565b9050919050565b7f42696f2063616e6e6f7420626520656d70747900000000000000000000000000600082015250565b60006117a56013836112ee565b91506117b08261176f565b602082019050919050565b600060208201905081810360008301526117d481611798565b9050919050565b7f536b696c6c732063616e6e6f7420626520656d70747900000000000000000000600082015250565b60006118116016836112ee565b915061181c826117db565b602082019050919050565b6000602082019050818103600083015261184081611804565b9050919050565b7f50726f66696c6520616c72656164792065786973747300000000000000000000600082015250565b600061187d6016836112ee565b915061188882611847565b602082019050919050565b600060208201905081810360008301526118ac81611870565b9050919050565b60008190508160005260206000209050919050565b60006020601f8301049050919050565b600082821b905092915050565b6000600883026119157fffffffffffffffffffffffffffffffffffffffffffffffffffffffffffffffff826118d8565b61191f86836118d8565b95508019841693508086168417925050509392505050565b6000819050919050565b600061195c6119576119528461104f565b611937565b61104f565b9050919050565b6000819050919050565b61197683611941565b61198a61198282611963565b8484546118e5565b825550505050565b600090565b61199f611992565b6119aa81848461196d565b505050565b5b818110156119ce576119c3600082611997565b6001810190506119b0565b5050565b601f821115611a13576119e4816118b3565b6119ed846118c8565b810160208510156119fc578190505b611a10611a08856118c8565b8301826119af565b50505b505050565b600082821c905092915050565b6000611a3660001984600802611a18565b1980831691505092915050565b6000611a4f8383611a25565b9150826002028217905092915050565b611a6882610fbf565b67ffffffffffffffff811115611a8157611a8061138e565b5b611a8b82546116d2565b611a968282856119d2565b600060209050601f831160018114611ac95760008415611ab7578287015190505b611ac18582611a43565b865550611b29565b601f198416611ad7866118b3565b60005b82811015611aff57848901518255600182019150602085019450602081019050611ada565b86831015611b1c5784890151611b18601f891682611a25565b8355505b6001600288020188555050505b505050505050565b60006020820190508181036000830152611b4b81846112ff565b905092915050565b7f43616e6e6f742072657669657720796f757273656c6600000000000000000000600082015250565b6000611b896016836112ee565b9150611b9482611b53565b602082019050919050565b60006020820190508181036000830152611bb881611b7c565b9050919050565b7f526174696e67206d757374206265206265747765656e203120616e6420350000600082015250565b6000611bf5601e836112ee565b9150611c0082611bbf565b602082019050919050565b60006020820190508181036000830152611c2481611be8565b9050919050565b7f436f6d6d656e742063616e6e6f7420626520656d707479000000000000000000600082015250565b6000611c616017836112ee565b9150611c6c82611c2b565b602082019050919050565b60006020820190508181036000830152611c9081611c54565b9050919050565b7f557365722070726f66696c6520646f6573206e6f742065786973740000000000600082015250565b6000611ccd601b836112ee565b9150611cd882611c97565b602082019050919050565b60006020820190508181036000830152611cfc81611cc0565b9050919050565b7f4e487b7100000000000000000000000000000000000000000000000000000000600052601160045260246000fd5b6000611d3d8261104f565b91507fffffffffffffffffffffffffffffffffffffffffffffffffffffffffffffffff8203611d6f57611d6e611d03565b5b600182019050919050565b6000611d858261104f565b9150611d908361104f565b9250828203905081811115611da857611da7611d03565b5b92915050565b6000611db98261104f565b9150611dc48361104f565b9250828202611dd28161104f565b91508282048414831517611de957611de8611d03565b5b5092915050565b6000611dfb8261104f565b9150611e068361104f565b9250828201905080821115611e1e57611e1d611d03565b5b92915050565b7f4e487b7100000000000000000000000000000000000000000000000000000000600052601260045260246000fd5b6000611e5e8261104f565b9150611e698361104f565b925082611e7957611e78611e24565b5b828204905092915050565b6000602082019050611e9960008301846112df565b9291505056fea26469706673582212203e55d17ada6ad5329fea4389dbcd234e30c397932e9436e5f68e95ab9ea26d5b64736f6c63430008140033",
  "linkReferences": {},
  "deployedLinkReferences": {}
}