{
  "_format": "hh-sol-artifact-1",
  "contractName": "JobContract",
  "sourceName": "contracts/JobContract.sol",
  "abi": [
    {
      "anonymous": false,
      "inputs": [
        {
          "indexed": true,
          "internalType": "uint256",
          "name": "jobId",
          "type": "uint256"
        },
        {
          "indexed": true,
          "internalType": "address",
          "name": "client",
          "type": "address"
        },
        {
          "indexed": false,
          "internalType": "string",
          "name": "title",
          "type": "string"
        },
        {
          "indexed": false,
          "internalType": "uint256",
          "name": "budget",
          "type": "uint256"
        }
      ],
      "name": "JobCreated",
      "type": "event"
    },
    {
      "anonymous": false,
      "inputs": [
        {
          "indexed": true,
          "internalType": "uint256",
          "name": "jobId",
          "type": "uint256"
        },
        {
          "indexed": true,
          "internalType": "address",
          "name": "freelancer",
          "type": "address"
        }
      ],
      "name": "ProposalAccepted",
      "type": "event"
    },
    {
      "anonymous": false,
      "inputs": [
        {
          "indexed": true,
          "internalType": "uint256",
          "name": "jobId",
          "type": "uint256"
        },
        {
          "indexed": true,
          "internalType": "address",
          "name": "freelancer",
          "type": "address"
        },
        {
          "indexed": false,
          "internalType": "uint256",
          "name": "bidAmount",
          "type": "uint256"
        }
      ],
      "name": "ProposalSubmitted",
      "type": "event"
    },
    {
      "inputs": [
        {
          "internalType": "uint256",
          "name": "_jobId",
          "type": "uint256"
        },
        {
          "internalType": "address",
          "name": "_freelancer",
          "type": "address"
        }
      ],
      "name": "acceptProposal",
      "outputs": [],
      "stateMutability": "nonpayable",
      "type": "function"
    },
    {
      "inputs": [
        {
          "internalType": "string",
          "name": "_title",
          "type": "string"
        },
        {
          "internalType": "string",
          "name": "_description",
          "type": "string"
        },
        {
          "internalType": "uint256",
          "name": "_budget",
          "type": "uint256"
        },
        {
          "internalType": "uint256",
          "name": "_deadline",
          "type": "uint256"
        }
      ],
      "name": "createJob",
      "outputs": [],
      "stateMutability": "nonpayable",
      "type": "function"
    },
    {
      "inputs": [
        {
          "internalType": "uint256",
          "name": "_jobId",
          "type": "uint256"
        }
      ],
      "name": "getJob",
      "outputs": [
        {
          "components": [
            {
              "internalType": "string",
              "name": "title",
              "type": "string"
            },
            {
              "internalType": "string",
              "name": "description",
              "type": "string"
            },
            {
              "internalType": "uint256",
              "name": "budget",
              "type": "uint256"
            },
            {
              "internalType": "uint256",
              "name": "deadline",
              "type": "uint256"
            },
            {
              "internalType": "address",
              "name": "client",
              "type": "address"
            },
            {
              "internalType": "bool",
              "name": "isActive",
              "type": "bool"
            }
          ],
          "internalType": "struct JobContract.Job",
          "name": "",
          "type": "tuple"
        }
      ],
      "stateMutability": "view",
      "type": "function"
    },
    {
      "inputs": [
        {
          "internalType": "uint256",
          "name": "_jobId",
          "type": "uint256"
        }
      ],
      "name": "getProposals",
      "outputs": [
        {
          "components": [
            {
              "internalType": "address",
              "name": "freelancer",
              "type": "address"
            },
            {
              "internalType": "string",
              "name": "proposal",
              "type": "string"
            },
            {
              "internalType": "uint256",
              "name": "bidAmount",
              "type": "uint256"
            },
            {
              "internalType": "bool",
              "name": "isAccepted",
              "type": "bool"
            }
          ],
          "internalType": "struct JobContract.Proposal[]",
          "name": "",
          "type": "tuple[]"
        }
      ],
      "stateMutability": "view",
      "type": "function"
    },
    {
      "inputs": [],
      "name": "jobCount",
      "outputs": [
        {
          "internalType": "uint256",
          "name": "",
          "type": "uint256"
        }
      ],
      "stateMutability": "view",
      "type": "function"
    },
    {
      "inputs": [
        {
          "internalType": "uint256",
          "name": "",
          "type": "uint256"
        }
      ],
      "name": "jobs",
      "outputs": [
        {
          "internalType": "string",
          "name": "title",
          "type": "string"
        },
        {
          "internalType": "string",
          "name": "description",
          "type": "string"
        },
        {
          "internalType": "uint256",
          "name": "budget",
          "type": "uint256"
        },
        {
          "internalType": "uint256",
          "name": "deadline",
          "type": "uint256"
        },
        {
          "internalType": "address",
          "name": "client",
          "type": "address"
        },
        {
          "internalType": "bool",
          "name": "isActive",
          "type": "bool"
        }
      ],
      "stateMutability": "view",
      "type": "function"
    },
    {
      "inputs": [
        {
          "internalType": "uint256",
          "name": "",
          "type": "uint256"
        },
        {
          "internalType": "uint256",
          "name": "",
          "type": "uint256"
        }
      ],
      "name": "proposals",
      "outputs": [
        {
          "internalType": "address",
          "name": "freelancer",
          "type": "address"
        },
        {
          "internalType": "string",
          "name": "proposal",
          "type": "string"
        },
        {
          "internalType": "uint256",
          "name": "bidAmount",
          "type": "uint256"
        },
        {
          "internalType": "bool",
          "name": "isAccepted",
          "type": "bool"
        }
      ],
      "stateMutability": "view",
      "type": "function"
    },
    {
      "inputs": [
        {
          "internalType": "uint256",
          "name": "_jobId",
          "type": "uint256"
        },
        {
          "internalType": "string",
          "name": "_proposal",
          "type": "string"
        },
        {
          "internalType": "uint256",
          "name": "_bidAmount",
          "type": "uint256"
        }
      ],
      "name": "submitProposal",
      "outputs": [],
      "stateMutability": "nonpayable",
      "type": "function"
    }
  ],
  "bytecode": "0x608060405234801561001057600080fd5b50611f8f806100206000396000f3fe608060405234801561001057600080fd5b50600436106100885760003560e01c8063bc56e7491161005b578063bc56e7491461012c578063bf22c45714610148578063c2cfee2714610178578063e364a5f7146101ab57610088565b8063180aedf31461008d5780632042ba3a146100c25780632c72fdfc146100de5780634c5d8a0f1461010e575b600080fd5b6100a760048036038101906100a291906110c2565b6101c7565b6040516100b9969594939291906111ea565b60405180910390f35b6100dc60048036038101906100d7919061138e565b610340565b005b6100f860048036038101906100f391906110c2565b61053a565b60405161010591906115c9565b60405180910390f35b61011661070a565b60405161012391906115eb565b60405180910390f35b61014660048036038101906101419190611632565b610710565b005b610162600480360381019061015d91906110c2565b610a16565b60405161016f9190611702565b60405180910390f35b610192600480360381019061018d9190611724565b610c3c565b6040516101a29493929190611764565b60405180910390f35b6101c560048036038101906101c091906117b0565b610d3e565b005b60006020528060005260406000206000915090508060000180546101ea9061184e565b80601f01602080910402602001604051908101604052809291908181526020018280546102169061184e565b80156102635780601f1061023857610100808354040283529160200191610263565b820191906000526020600020905b81548152906001019060200180831161024657829003601f168201915b5050505050908060010180546102789061184e565b80601f01602080910402602001604051908101604052809291908181526020018280546102a49061184e565b80156102f15780601f106102c6576101008083540402835291602001916102f1565b820191906000526020600020905b8154815290600101906020018083116102d457829003601f168201915b5050505050908060020154908060030154908060040160009054906101000a900473ffffffffffffffffffffffffffffffffffffffff16908060040160149054906101000a900460ff16905086565b428111610382576040517f08c379a0000000000000000000000000000000000000000000000000000000008152600401610379906118cb565b60405180910390fd5b600082116103c5576040517f08c379a00000000000000000000000000000000000000000000000000000000081526004016103bc90611937565b60405180910390fd5b600260008154809291906103d890611986565b91905055506040518060c001604052808581526020018481526020018381526020018281526020013373ffffffffffffffffffffffffffffffffffffffff168152602001600115158152506000806002548152602001908152602001600020600082015181600001908161044c9190611b7a565b5060208201518160010190816104629190611b7a565b50604082015181600201556060820151816003015560808201518160040160006101000a81548173ffffffffffffffffffffffffffffffffffffffff021916908373ffffffffffffffffffffffffffffffffffffffff16021790555060a08201518160040160146101000a81548160ff0219169083151502179055509050503373ffffffffffffffffffffffffffffffffffffffff166002547fe2664ff85acbefce4793e83fe4a10e88680b3172a3e401c7946d7cfb8f19ebdb868560405161052c929190611c4c565b60405180910390a350505050565b606060008211801561054e57506002548211155b61058d576040517f08c379a000000000000000000000000000000000000000000000000000000000815260040161058490611cc8565b60405180910390fd5b60016000838152602001908152602001600020805480602002602001604051908101604052809291908181526020016000905b828210156106ff57838290600052602060002090600402016040518060800160405290816000820160009054906101000a900473ffffffffffffffffffffffffffffffffffffffff1673ffffffffffffffffffffffffffffffffffffffff1673ffffffffffffffffffffffffffffffffffffffff1681526020016001820180546106499061184e565b80601f01602080910402602001604051908101604052809291908181526020018280546106759061184e565b80156106c25780601f10610697576101008083540402835291602001916106c2565b820191906000526020600020905b8154815290600101906020018083116106a557829003601f168201915b50505050508152602001600282015481526020016003820160009054906101000a900460ff161515151581525050815260200190600101906105c0565b505050509050919050565b60025481565b60008211801561072257506002548211155b610761576040517f08c379a000000000000000000000000000000000000000000000000000000000815260040161075890611cc8565b60405180910390fd5b60008083815260200190815260200160002060040160009054906101000a900473ffffffffffffffffffffffffffffffffffffffff1673ffffffffffffffffffffffffffffffffffffffff163373ffffffffffffffffffffffffffffffffffffffff1614610804576040517f08c379a00000000000000000000000000000000000000000000000000000000081526004016107fb90611d34565b60405180910390fd5b60008083815260200190815260200160002060040160149054906101000a900460ff16610866576040517f08c379a000000000000000000000000000000000000000000000000000000000815260040161085d90611da0565b60405180910390fd5b60006001600084815260200190815260200160002090506000805b828054905081101561095d578373ffffffffffffffffffffffffffffffffffffffff168382815481106108b7576108b6611dc0565b5b906000526020600020906004020160000160009054906101000a900473ffffffffffffffffffffffffffffffffffffffff1673ffffffffffffffffffffffffffffffffffffffff160361094a57600183828154811061091957610918611dc0565b5b906000526020600020906004020160030160006101000a81548160ff0219169083151502179055506001915061095d565b808061095590611986565b915050610881565b508061099e576040517f08c379a000000000000000000000000000000000000000000000000000000000815260040161099590611e3b565b60405180910390fd5b600080600086815260200190815260200160002060040160146101000a81548160ff0219169083151502179055508273ffffffffffffffffffffffffffffffffffffffff16847f488e676b8b729cd92586573f5b7b42787c118396c4a19f570e9c9e422e4dbf1860405160405180910390a350505050565b610a1e61102a565b600082118015610a3057506002548211155b610a6f576040517f08c379a0000000000000000000000000000000000000000000000000000000008152600401610a6690611cc8565b60405180910390fd5b6000808381526020019081526020016000206040518060c0016040529081600082018054610a9c9061184e565b80601f0160208091040260200160405190810160405280929190818152602001828054610ac89061184e565b8015610b155780601f10610aea57610100808354040283529160200191610b15565b820191906000526020600020905b815481529060010190602001808311610af857829003601f168201915b50505050508152602001600182018054610b2e9061184e565b80601f0160208091040260200160405190810160405280929190818152602001828054610b5a9061184e565b8015610ba75780601f10610b7c57610100808354040283529160200191610ba7565b820191906000526020600020905b815481529060010190602001808311610b8a57829003601f168201915b5050505050815260200160028201548152602001600382015481526020016004820160009054906101000a900473ffffffffffffffffffffffffffffffffffffffff1673ffffffffffffffffffffffffffffffffffffffff1673ffffffffffffffffffffffffffffffffffffffff1681526020016004820160149054906101000a900460ff1615151515815250509050919050565b60016020528160005260406000208181548110610c5857600080fd5b9060005260206000209060040201600091509150508060000160009054906101000a900473ffffffffffffffffffffffffffffffffffffffff1690806001018054610ca29061184e565b80601f0160208091040260200160405190810160405280929190818152602001828054610cce9061184e565b8015610d1b5780601f10610cf057610100808354040283529160200191610d1b565b820191906000526020600020905b815481529060010190602001808311610cfe57829003601f168201915b5050505050908060020154908060030160009054906101000a900460ff16905084565b600083118015610d5057506002548311155b610d8f576040517f08c379a0000000000000000000000000000000000000000000000000000000008152600401610d8690611cc8565b60405180910390fd5b60008084815260200190815260200160002060040160149054906101000a900460ff16610df1576040517f08c379a0000000000000000000000000000000000000000000000000000000008152600401610de890611da0565b60405180910390fd5b60008084815260200190815260200160002060040160009054906101000a900473ffffffffffffffffffffffffffffffffffffffff1673ffffffffffffffffffffffffffffffffffffffff163373ffffffffffffffffffffffffffffffffffffffff1603610e94576040517f08c379a0000000000000000000000000000000000000000000000000000000008152600401610e8b90611ea7565b60405180910390fd5b60008111610ed7576040517f08c379a0000000000000000000000000000000000000000000000000000000008152600401610ece90611f39565b60405180910390fd5b6001600084815260200190815260200160002060405180608001604052803373ffffffffffffffffffffffffffffffffffffffff16815260200184815260200183815260200160001515815250908060018154018082558091505060019003906000526020600020906004020160009091909190915060008201518160000160006101000a81548173ffffffffffffffffffffffffffffffffffffffff021916908373ffffffffffffffffffffffffffffffffffffffff1602179055506020820151816001019081610fa99190611b7a565b506040820151816002015560608201518160030160006101000a81548160ff02191690831515021790555050503373ffffffffffffffffffffffffffffffffffffffff16837f6595205dae276ce902b2ea66a70a1f42db62056854c3c4dba1e00ec5e2d56e3d8360405161101d91906115eb565b60405180910390a3505050565b6040518060c0016040528060608152602001606081526020016000815260200160008152602001600073ffffffffffffffffffffffffffffffffffffffff1681526020016000151581525090565b6000604051905090565b600080fd5b600080fd5b6000819050919050565b61109f8161108c565b81146110aa57600080fd5b50565b6000813590506110bc81611096565b92915050565b6000602082840312156110d8576110d7611082565b5b60006110e6848285016110ad565b91505092915050565b600081519050919050565b600082825260208201905092915050565b60005b8381101561112957808201518184015260208101905061110e565b60008484015250505050565b6000601f19601f8301169050919050565b6000611151826110ef565b61115b81856110fa565b935061116b81856020860161110b565b61117481611135565b840191505092915050565b6111888161108c565b82525050565b600073ffffffffffffffffffffffffffffffffffffffff82169050919050565b60006111b98261118e565b9050919050565b6111c9816111ae565b82525050565b60008115159050919050565b6111e4816111cf565b82525050565b600060c08201905081810360008301526112048189611146565b905081810360208301526112188188611146565b9050611227604083018761117f565b611234606083018661117f565b61124160808301856111c0565b61124e60a08301846111db565b979650505050505050565b600080fd5b600080fd5b7f4e487b7100000000000000000000000000000000000000000000000000000000600052604160045260246000fd5b61129b82611135565b810181811067ffffffffffffffff821117156112ba576112b9611263565b5b80604052505050565b60006112cd611078565b90506112d98282611292565b919050565b600067ffffffffffffffff8211156112f9576112f8611263565b5b61130282611135565b9050602081019050919050565b82818337600083830152505050565b600061133161132c846112de565b6112c3565b90508281526020810184848401111561134d5761134c61125e565b5b61135884828561130f565b509392505050565b600082601f83011261137557611374611259565b5b813561138584826020860161131e565b91505092915050565b600080600080608085870312156113a8576113a7611082565b5b600085013567ffffffffffffffff8111156113c6576113c5611087565b5b6113d287828801611360565b945050602085013567ffffffffffffffff8111156113f3576113f2611087565b5b6113ff87828801611360565b9350506040611410878288016110ad565b9250506060611421878288016110ad565b91505092959194509250565b600081519050919050565b600082825260208201905092915050565b6000819050602082019050919050565b611462816111ae565b82525050565b600082825260208201905092915050565b6000611484826110ef565b61148e8185611468565b935061149e81856020860161110b565b6114a781611135565b840191505092915050565b6114bb8161108c565b82525050565b6114ca816111cf565b82525050565b60006080830160008301516114e86000860182611459565b50602083015184820360208601526115008282611479565b915050604083015161151560408601826114b2565b50606083015161152860608601826114c1565b508091505092915050565b600061153f83836114d0565b905092915050565b6000602082019050919050565b600061155f8261142d565b6115698185611438565b93508360208202850161157b85611449565b8060005b858110156115b757848403895281516115988582611533565b94506115a383611547565b925060208a0199505060018101905061157f565b50829750879550505050505092915050565b600060208201905081810360008301526115e38184611554565b905092915050565b6000602082019050611600600083018461117f565b92915050565b61160f816111ae565b811461161a57600080fd5b50565b60008135905061162c81611606565b92915050565b6000806040838503121561164957611648611082565b5b6000611657858286016110ad565b92505060206116688582860161161d565b9150509250929050565b600060c083016000830151848203600086015261168f8282611479565b915050602083015184820360208601526116a98282611479565b91505060408301516116be60408601826114b2565b5060608301516116d160608601826114b2565b5060808301516116e46080860182611459565b5060a08301516116f760a08601826114c1565b508091505092915050565b6000602082019050818103600083015261171c8184611672565b905092915050565b6000806040838503121561173b5761173a611082565b5b6000611749858286016110ad565b925050602061175a858286016110ad565b9150509250929050565b600060808201905061177960008301876111c0565b818103602083015261178b8186611146565b905061179a604083018561117f565b6117a760608301846111db565b95945050505050565b6000806000606084860312156117c9576117c8611082565b5b60006117d7868287016110ad565b935050602084013567ffffffffffffffff8111156117f8576117f7611087565b5b61180486828701611360565b9250506040611815868287016110ad565b9150509250925092565b7f4e487b7100000000000000000000000000000000000000000000000000000000600052602260045260246000fd5b6000600282049050600182168061186657607f821691505b6020821081036118795761187861181f565b5b50919050565b7f446561646c696e65206d75737420626520696e20746865206675747572650000600082015250565b60006118b5601e836110fa565b91506118c08261187f565b602082019050919050565b600060208201905081810360008301526118e4816118a8565b9050919050565b7f427564676574206d7573742062652067726561746572207468616e2030000000600082015250565b6000611921601d836110fa565b915061192c826118eb565b602082019050919050565b6000602082019050818103600083015261195081611914565b9050919050565b7f4e487b7100000000000000000000000000000000000000000000000000000000600052601160045260246000fd5b60006119918261108c565b91507fffffffffffffffffffffffffffffffffffffffffffffffffffffffffffffffff82036119c3576119c2611957565b5b600182019050919050565b60008190508160005260206000209050919050565b60006020601f8301049050919050565b600082821b905092915050565b600060088302611a307fffffffffffffffffffffffffffffffffffffffffffffffffffffffffffffffff826119f3565b611a3a86836119f3565b95508019841693508086168417925050509392505050565b6000819050919050565b6000611a77611a72611a6d8461108c565b611a52565b61108c565b9050919050565b6000819050919050565b611a9183611a5c565b611aa5611a9d82611a7e565b848454611a00565b825550505050565b600090565b611aba611aad565b611ac5818484611a88565b505050565b5b81811015611ae957611ade600082611ab2565b600181019050611acb565b5050565b601f821115611b2e57611aff816119ce565b611b08846119e3565b81016020851015611b17578190505b611b2b611b23856119e3565b830182611aca565b50505b505050565b600082821c905092915050565b6000611b5160001984600802611b33565b1980831691505092915050565b6000611b6a8383611b40565b9150826002028217905092915050565b611b83826110ef565b67ffffffffffffffff811115611b9c57611b9b611263565b5b611ba6825461184e565b611bb1828285611aed565b600060209050601f831160018114611be45760008415611bd2578287015190505b611bdc8582611b5e565b865550611c44565b601f198416611bf2866119ce565b60005b82811015611c1a57848901518255600182019150602085019450602081019050611bf5565b86831015611c375784890151611c33601f891682611b40565b8355505b6001600288020188555050505b505050505050565b60006040820190508181036000830152611c668185611146565b9050611c75602083018461117f565b9392505050565b7f496e76616c6964206a6f62204944000000000000000000000000000000000000600082015250565b6000611cb2600e836110fa565b9150611cbd82611c7c565b602082019050919050565b60006020820190508181036000830152611ce181611ca5565b9050919050565b7f4f6e6c7920636c69656e742063616e206163636570742070726f706f73616c00600082015250565b6000611d1e601f836110fa565b9150611d2982611ce8565b602082019050919050565b60006020820190508181036000830152611d4d81611d11565b9050919050565b7f4a6f62206973206e6f7420616374697665000000000000000000000000000000600082015250565b6000611d8a6011836110fa565b9150611d9582611d54565b602082019050919050565b60006020820190508181036000830152611db981611d7d565b9050919050565b7f4e487b7100000000000000000000000000000000000000000000000000000000600052603260045260246000fd5b7f50726f706f73616c206e6f7420666f756e640000000000000000000000000000600082015250565b6000611e256012836110fa565b9150611e3082611def565b602082019050919050565b60006020820190508181036000830152611e5481611e18565b9050919050565b7f436c69656e742063616e6e6f74207375626d69742070726f706f73616c000000600082015250565b6000611e91601d836110fa565b9150611e9c82611e5b565b602082019050919050565b60006020820190508181036000830152611ec081611e84565b9050919050565b7f42696420616d6f756e74206d7573742062652067726561746572207468616e2060008201527f3000000000000000000000000000000000000000000000000000000000000000602082015250565b6000611f236021836110fa565b9150611f2e82611ec7565b604082019050919050565b60006020820190508181036000830152611f5281611f16565b905091905056fea264697066735822122061ebcc5bf016d097ba012dd595954a54c764e9c5e009dc6d36f74c2aeb0a243864736f6c63430008140033",
  "linkReferences": {},
  "deployedLinkReferences": {}
}